{
  "contractName": "AirDrop",
  "abi": [
    {
      "constant": true,
      "inputs": [],
      "name": "dropAmount",
      "outputs": [
        {
          "name": "",
          "type": "uint256"
        }
      ],
      "payable": false,
      "stateMutability": "view",
      "type": "function"
    },
    {
      "constant": false,
      "inputs": [
        {
          "name": "token",
          "type": "address"
        },
        {
          "name": "tokenRepo",
          "type": "address"
        },
        {
          "name": "recipients",
          "type": "address[]"
        },
        {
          "name": "amount",
          "type": "uint256"
        }
      ],
      "name": "airDrop",
      "outputs": [],
      "payable": false,
      "stateMutability": "nonpayable",
      "type": "function"
    },
    {
      "constant": true,
      "inputs": [],
      "name": "numDrops",
      "outputs": [
        {
          "name": "",
          "type": "uint256"
        }
      ],
      "payable": false,
      "stateMutability": "view",
      "type": "function"
    },
    {
      "inputs": [],
      "payable": false,
      "stateMutability": "nonpayable",
      "type": "constructor"
    },
    {
      "anonymous": false,
      "inputs": [
        {
          "indexed": false,
          "name": "receiver",
          "type": "address"
        },
        {
          "indexed": false,
          "name": "amount",
          "type": "uint256"
        }
      ],
      "name": "TokenDrop",
      "type": "event"
    }
  ],
  "bytecode": "0x6060604052341561000f57600080fd5b33600260006101000a81548173ffffffffffffffffffffffffffffffffffffffff021916908373ffffffffffffffffffffffffffffffffffffffff1602179055506103cf8061005f6000396000f300606060405260043610610057576000357c0100000000000000000000000000000000000000000000000000000000900463ffffffff16806305748be21461005c578063190b41ee146100855780638bc3009614610126575b600080fd5b341561006757600080fd5b61006f61014f565b6040518082815260200191505060405180910390f35b341561009057600080fd5b610124600480803573ffffffffffffffffffffffffffffffffffffffff1690602001909190803573ffffffffffffffffffffffffffffffffffffffff1690602001909190803590602001908201803590602001908080602002602001604051908101604052809392919081815260200183836020028082843782019150505050505091908035906020019091905050610155565b005b341561013157600080fd5b61013961039d565b6040518082815260200191505060405180910390f35b60015481565b6000600260009054906101000a900473ffffffffffffffffffffffffffffffffffffffff1673ffffffffffffffffffffffffffffffffffffffff163373ffffffffffffffffffffffffffffffffffffffff161415156101b357600080fd5b600082111561037357600090505b8251811015610372578473ffffffffffffffffffffffffffffffffffffffff166323b872dd8585848151811015156101f557fe5b90602001906020020151856000604051602001526040518463ffffffff167c0100000000000000000000000000000000000000000000000000000000028152600401808473ffffffffffffffffffffffffffffffffffffffff1673ffffffffffffffffffffffffffffffffffffffff1681526020018373ffffffffffffffffffffffffffffffffffffffff1673ffffffffffffffffffffffffffffffffffffffff1681526020018281526020019350505050602060405180830381600087803b15156102c057600080fd5b6102c65a03f115156102d157600080fd5b5050506040518051905015156102e357fe5b7fb88903f74059b09b78248a0df6ba49200ca616f185ca84aca28d3e74e754ab86838281518110151561031257fe5b9060200190602002015183604051808373ffffffffffffffffffffffffffffffffffffffff1673ffffffffffffffffffffffffffffffffffffffff1681526020018281526020019250505060405180910390a180806001019150506101c1565b5b82516000808282540192505081905550818351026001600082825401925050819055505050505050565b600054815600a165627a7a72305820f5103e98e56b131d2045dcdc33b24ff3cd7466a05b3a659566c30b96533777e40029",
  "source": "pragma solidity ^0.4.4;\r\nimport \"./FunToken.sol\";\r\n\r\ncontract AirDrop {\r\n  uint public numDrops;\r\n  uint public dropAmount;\r\n  address owner;\r\n\r\n  modifier onlyOwner() {\r\n    require(msg.sender == owner);\r\n    _;\r\n  }\r\n\r\n  function AirDrop() {\r\n    owner = msg.sender;\r\n  }\r\n\r\n  event TokenDrop( address receiver, uint amount );\r\n\r\n  function airDrop( FunToken token,\r\n                    address   tokenRepo,\r\n                    address[] recipients,\r\n                    uint amount) onlyOwner {\r\n\r\n    if( amount > 0 ) {\r\n      for( uint i = 0 ; i < recipients.length ; i++ ) {\r\n          assert(token.transferFrom(tokenRepo, recipients[i], amount));\r\n          TokenDrop(recipients[i], amount);\r\n      }\r\n    }\r\n\r\n    numDrops += recipients.length;\r\n    dropAmount += recipients.length * amount;\r\n  }\r\n}",
  "sourcePath": "C:\\Users\\engineer\\Desktop\\AirDropToken\\contracts\\AirDrop.sol",
  "compiler": {
    "name": "solc",
    "version": "0.4.18+commit.9cf6e910.Emscripten.clang"
  },
  "schemaVersion": "1.0.1",
  "updatedAt": "2018-02-08T09:49:33.470Z"
}